{
  "contractName": "SmartCarStorage",
  "abi": [
    {
      "constant": false,
      "inputs": [
        {
          "name": "_ownerName",
          "type": "string"
        },
        {
          "name": "_ownerId",
          "type": "uint256"
        },
        {
          "name": "_carDesc",
          "type": "string"
        },
        {
          "name": "_secret",
          "type": "string"
        }
      ],
      "name": "addCarInfo",
      "outputs": [],
      "payable": false,
      "stateMutability": "nonpayable",
      "type": "function"
    },
    {
      "constant": false,
      "inputs": [],
      "name": "getTrailCount",
      "outputs": [
        {
          "name": "",
          "type": "uint8"
        }
      ],
      "payable": false,
      "stateMutability": "nonpayable",
      "type": "function"
    },
    {
      "constant": false,
      "inputs": [],
      "name": "getCarInfo",
      "outputs": [
        {
          "name": "",
          "type": "string"
        },
        {
          "name": "",
          "type": "uint256"
        },
        {
          "name": "",
          "type": "uint256"
        },
        {
          "name": "",
          "type": "uint256"
        },
        {
          "name": "",
          "type": "string"
        }
      ],
      "payable": false,
      "stateMutability": "nonpayable",
      "type": "function"
    }
  ],
  "bytecode": "0x60806040526000600160006101000a81548160ff021916908360ff16021790555034801561002c57600080fd5b506105ed8061003c6000396000f300608060405260043610610057576000357c0100000000000000000000000000000000000000000000000000000000900463ffffffff168063183771821461005c5780631c40d62a1461016d57806373f0101c1461026c575b600080fd5b34801561006857600080fd5b5061007161029d565b604051808060200186815260200185815260200184815260200180602001838103835288818151815260200191508051906020019080838360005b838110156100c75780820151818401526020810190506100ac565b50505050905090810190601f1680156100f45780820380516001836020036101000a031916815260200191505b50838103825284818151815260200191508051906020019080838360005b8381101561012d578082015181840152602081019050610112565b50505050905090810190601f16801561015a5780820380516001836020036101000a031916815260200191505b5097505050505050505060405180910390f35b34801561017957600080fd5b5061026a600480360381019080803590602001908201803590602001908080601f016020809104026020016040519081016040528093929190818152602001838380828437820191505050505050919291929080359060200190929190803590602001908201803590602001908080601f0160208091040260200160405190810160405280939291908181526020018383808284378201915050505050509192919290803590602001908201803590602001908080601f01602080910402602001604051908101604052809392919081815260200183838082843782019150505050505091929192905050506104b5565b005b34801561027857600080fd5b50610281610573565b604051808260ff1660ff16815260200191505060405180910390f35b606060008060006060600080600160009054906101000a900460ff1660ff168152602001908152602001600020600001600080600160009054906101000a900460ff1660ff16815260200190815260200160002060010154600080600160009054906101000a900460ff1660ff16815260200190815260200160002060020154600080600160009054906101000a900460ff1660ff16815260200190815260200160002060040154600080600160009054906101000a900460ff1660ff168152602001908152602001600020600501848054600181600116156101000203166002900480601f0160208091040260200160405190810160405280929190818152602001828054600181600116156101000203166002900480156104015780601f106103d657610100808354040283529160200191610401565b820191906000526020600020905b8154815290600101906020018083116103e457829003601f168201915b50505050509450808054600181600116156101000203166002900480601f01602080910402602001604051908101604052809291908181526020018280546001816001161561010002031660029004801561049d5780601f106104725761010080835404028352916020019161049d565b820191906000526020600020905b81548152906001019060200180831161048057829003601f168201915b50505050509050945094509450945094509091929394565b6104bd61058a565b84816000018190525083816020018181525050828160600181905250818160a00181905250428160800181815250506000600160009054906101000a900460ff1660ff1614151561053a57600080600160009054906101000a900460ff1660ff168152602001908152602001600020600101548160400181815250505b6001600081819054906101000a900460ff168092919060010191906101000a81548160ff021916908360ff160217905550505050505050565b6000600160009054906101000a900460ff16905090565b60c06040519081016040528060608152602001600081526020016000815260200160608152602001600081526020016060815250905600a165627a7a72305820564b283bd79f99e0f7f252aa5ae6f99704654303057abb07bd9059b5e6f339390029",
  "source": "pragma solidity ^0.4.4;\n\n\ncontract SmartCarStorage {\n\n  struct CarInfo {\n    string owner_name;\n    uint owner_Id;\n    uint previous_owner_Id;\n    string car_description;\n    uint timestamp;\n    string secret;\n  }\n\n  mapping(uint=>CarInfo) Trail;\n\n  uint8 trailCount = 0;\n\n  function addCarInfo(string _ownerName, uint _ownerId, string _carDesc, string _secret) public {\n\n    CarInfo memory newCarInfo;\n    newCarInfo.owner_name = _ownerName;\n    newCarInfo.owner_Id = _ownerId;\n    newCarInfo.car_description = _carDesc;\n    newCarInfo.secret = _secret;\n    newCarInfo.timestamp = now;\n\n    if(trailCount != 0) {\n      newCarInfo.previous_owner_Id = Trail[trailCount].owner_Id;\n    }\n\n    trailCount++;\n\n  }\n\n  function getTrailCount() public returns(uint8) {\n    return trailCount;\n  }\n\n  /**\n    * @return owner_name\n    * @return owner_id\n    * @return previous_owner_id\n    * @return timestamp\n    * @return secret\n   */\n  function getCarInfo() public returns (string, uint, uint, uint, string) {\n    return (Trail[trailCount].owner_name, Trail[trailCount].owner_Id, Trail[trailCount].previous_owner_Id, \n              Trail[trailCount].timestamp, Trail[trailCount].secret);\n  }\n\n}\n",
  "sourcePath": "/home/t8rj/Documents/ethereumPractice/show/Structure2/Structure/contracts/SmartCarStorage.sol",
  "compiler": {
    "name": "solc",
    "version": "0.4.24+commit.e67f0147.Emscripten.clang"
  },
  "schemaVersion": "2.0.0",
  "updatedAt": "2018-08-22T03:16:35.703Z"
}